{
  "_format": "hh-sol-artifact-1",
  "contractName": "FundMe",
  "sourceName": "contracts/FundMe.sol",
  "abi": [
    {
      "inputs": [
        {
          "internalType": "address",
          "name": "_priceFeed",
          "type": "address"
        }
      ],
      "stateMutability": "nonpayable",
      "type": "constructor"
    },
    {
      "inputs": [
        {
          "internalType": "address",
          "name": "",
          "type": "address"
        }
      ],
      "name": "addressToAmount",
      "outputs": [
        {
          "internalType": "uint256",
          "name": "",
          "type": "uint256"
        }
      ],
      "stateMutability": "view",
      "type": "function"
    },
    {
      "inputs": [],
      "name": "fund",
      "outputs": [],
      "stateMutability": "payable",
      "type": "function"
    },
    {
      "inputs": [
        {
          "internalType": "uint256",
          "name": "",
          "type": "uint256"
        }
      ],
      "name": "funders",
      "outputs": [
        {
          "internalType": "address",
          "name": "",
          "type": "address"
        }
      ],
      "stateMutability": "view",
      "type": "function"
    },
    {
      "inputs": [],
      "name": "owner",
      "outputs": [
        {
          "internalType": "address",
          "name": "",
          "type": "address"
        }
      ],
      "stateMutability": "view",
      "type": "function"
    },
    {
      "inputs": [],
      "name": "priceFeed",
      "outputs": [
        {
          "internalType": "contract AggregatorV3Interface",
          "name": "",
          "type": "address"
        }
      ],
      "stateMutability": "view",
      "type": "function"
    },
    {
      "inputs": [],
      "name": "returnpriceFeed",
      "outputs": [
        {
          "internalType": "contract AggregatorV3Interface",
          "name": "",
          "type": "address"
        }
      ],
      "stateMutability": "view",
      "type": "function"
    },
    {
      "inputs": [],
      "name": "withdraw",
      "outputs": [],
      "stateMutability": "nonpayable",
      "type": "function"
    }
  ],
  "bytecode": "0x6080604052678ac7230489e8000060025534801561001c57600080fd5b50604051610fb6380380610fb6833981810160405281019061003e9190610128565b336000806101000a81548173ffffffffffffffffffffffffffffffffffffffff021916908373ffffffffffffffffffffffffffffffffffffffff16021790555080600160006101000a81548173ffffffffffffffffffffffffffffffffffffffff021916908373ffffffffffffffffffffffffffffffffffffffff16021790555050610155565b600080fd5b600073ffffffffffffffffffffffffffffffffffffffff82169050919050565b60006100f5826100ca565b9050919050565b610105816100ea565b811461011057600080fd5b50565b600081519050610122816100fc565b92915050565b60006020828403121561013e5761013d6100c5565b5b600061014c84828501610113565b91505092915050565b610e52806101646000396000f3fe6080604052600436106100705760003560e01c806376190cab1161004e57806376190cab146100f45780638da5cb5b1461011f578063b60d42881461014a578063dc0d3dff1461015457610070565b80633c7e7d28146100755780633ccfd60b146100b2578063741bef1a146100c9575b600080fd5b34801561008157600080fd5b5061009c6004803603810190610097919061082c565b610191565b6040516100a99190610872565b60405180910390f35b3480156100be57600080fd5b506100c76101a9565b005b3480156100d557600080fd5b506100de610481565b6040516100eb91906108ec565b60405180910390f35b34801561010057600080fd5b506101096104a7565b60405161011691906108ec565b60405180910390f35b34801561012b57600080fd5b506101346104d1565b6040516101419190610916565b60405180910390f35b6101526104f5565b005b34801561016057600080fd5b5061017b6004803603810190610176919061095d565b610616565b6040516101889190610916565b60405180910390f35b60046020528060005260406000206000915090505481565b60008054906101000a900473ffffffffffffffffffffffffffffffffffffffff1673ffffffffffffffffffffffffffffffffffffffff163373ffffffffffffffffffffffffffffffffffffffff1614610237576040517f08c379a000000000000000000000000000000000000000000000000000000000815260040161022e906109e7565b60405180910390fd5b60008054906101000a900473ffffffffffffffffffffffffffffffffffffffff1673ffffffffffffffffffffffffffffffffffffffff163373ffffffffffffffffffffffffffffffffffffffff16146102c5576040517f08c379a00000000000000000000000000000000000000000000000000000000081526004016102bc906109e7565b60405180910390fd5b60005b600380549050811015610371576000600382815481106102eb576102ea610a07565b5b9060005260206000200160009054906101000a900473ffffffffffffffffffffffffffffffffffffffff1690506000600460008373ffffffffffffffffffffffffffffffffffffffff1673ffffffffffffffffffffffffffffffffffffffff1681526020019081526020016000208190555050808061036990610a65565b9150506102c8565b50600067ffffffffffffffff81111561038d5761038c610aad565b5b6040519080825280602002602001820160405280156103bb5781602001602082028036833780820191505090505b50600390805190602001906103d1929190610722565b5060003373ffffffffffffffffffffffffffffffffffffffff16476040516103f890610b0d565b60006040518083038185875af1925050503d8060008114610435576040519150601f19603f3d011682016040523d82523d6000602084013e61043a565b606091505b505090508061047e576040517f08c379a000000000000000000000000000000000000000000000000000000000815260040161047590610b6e565b60405180910390fd5b50565b600160009054906101000a900473ffffffffffffffffffffffffffffffffffffffff1681565b6000600160009054906101000a900473ffffffffffffffffffffffffffffffffffffffff16905090565b60008054906101000a900473ffffffffffffffffffffffffffffffffffffffff1681565b60025461052d600160009054906101000a900473ffffffffffffffffffffffffffffffffffffffff163461065590919063ffffffff16565b1161056d576040517f08c379a000000000000000000000000000000000000000000000000000000000815260040161056490610bda565b60405180910390fd5b6003339080600181540180825580915050600190039060005260206000200160009091909190916101000a81548173ffffffffffffffffffffffffffffffffffffffff021916908373ffffffffffffffffffffffffffffffffffffffff16021790555034600460003373ffffffffffffffffffffffffffffffffffffffff1673ffffffffffffffffffffffffffffffffffffffff16815260200190815260200160002081905550565b6003818154811061062657600080fd5b906000526020600020016000915054906101000a900473ffffffffffffffffffffffffffffffffffffffff1681565b60008061066183610691565b90506000670de0b6b3a7640000858361067a9190610bfa565b6106849190610c6b565b9050809250505092915050565b6000808273ffffffffffffffffffffffffffffffffffffffff1663feaf968c6040518163ffffffff1660e01b815260040160a060405180830381865afa1580156106df573d6000803e3d6000fd5b505050506040513d601f19601f820116820180604052508101906107039190610d29565b5050509150506402540be4008161071a9190610da4565b915050919050565b82805482825590600052602060002090810192821561079b579160200282015b8281111561079a5782518260006101000a81548173ffffffffffffffffffffffffffffffffffffffff021916908373ffffffffffffffffffffffffffffffffffffffff16021790555091602001919060010190610742565b5b5090506107a891906107ac565b5090565b5b808211156107c55760008160009055506001016107ad565b5090565b600080fd5b600073ffffffffffffffffffffffffffffffffffffffff82169050919050565b60006107f9826107ce565b9050919050565b610809816107ee565b811461081457600080fd5b50565b60008135905061082681610800565b92915050565b600060208284031215610842576108416107c9565b5b600061085084828501610817565b91505092915050565b6000819050919050565b61086c81610859565b82525050565b60006020820190506108876000830184610863565b92915050565b6000819050919050565b60006108b26108ad6108a8846107ce565b61088d565b6107ce565b9050919050565b60006108c482610897565b9050919050565b60006108d6826108b9565b9050919050565b6108e6816108cb565b82525050565b600060208201905061090160008301846108dd565b92915050565b610910816107ee565b82525050565b600060208201905061092b6000830184610907565b92915050565b61093a81610859565b811461094557600080fd5b50565b60008135905061095781610931565b92915050565b600060208284031215610973576109726107c9565b5b600061098184828501610948565b91505092915050565b600082825260208201905092915050565b7f596f752063616e206e6f74207769746864726177000000000000000000000000600082015250565b60006109d160148361098a565b91506109dc8261099b565b602082019050919050565b60006020820190508181036000830152610a00816109c4565b9050919050565b7f4e487b7100000000000000000000000000000000000000000000000000000000600052603260045260246000fd5b7f4e487b7100000000000000000000000000000000000000000000000000000000600052601160045260246000fd5b6000610a7082610859565b91507fffffffffffffffffffffffffffffffffffffffffffffffffffffffffffffffff8203610aa257610aa1610a36565b5b600182019050919050565b7f4e487b7100000000000000000000000000000000000000000000000000000000600052604160045260246000fd5b600081905092915050565b50565b6000610af7600083610adc565b9150610b0282610ae7565b600082019050919050565b6000610b1882610aea565b9150819050919050565b7f43616c6c206661696c6564000000000000000000000000000000000000000000600082015250565b6000610b58600b8361098a565b9150610b6382610b22565b602082019050919050565b60006020820190508181036000830152610b8781610b4b565b9050919050565b7f4469646e742073656e6420656e6f756768000000000000000000000000000000600082015250565b6000610bc460118361098a565b9150610bcf82610b8e565b602082019050919050565b60006020820190508181036000830152610bf381610bb7565b9050919050565b6000610c0582610859565b9150610c1083610859565b9250828202610c1e81610859565b91508282048414831517610c3557610c34610a36565b5b5092915050565b7f4e487b7100000000000000000000000000000000000000000000000000000000600052601260045260246000fd5b6000610c7682610859565b9150610c8183610859565b925082610c9157610c90610c3c565b5b828204905092915050565b600069ffffffffffffffffffff82169050919050565b610cbb81610c9c565b8114610cc657600080fd5b50565b600081519050610cd881610cb2565b92915050565b6000819050919050565b610cf181610cde565b8114610cfc57600080fd5b50565b600081519050610d0e81610ce8565b92915050565b600081519050610d2381610931565b92915050565b600080600080600060a08688031215610d4557610d446107c9565b5b6000610d5388828901610cc9565b9550506020610d6488828901610cff565b9450506040610d7588828901610d14565b9350506060610d8688828901610d14565b9250506080610d9788828901610cc9565b9150509295509295909350565b6000610daf82610cde565b9150610dba83610cde565b9250828202610dc881610cde565b91507f80000000000000000000000000000000000000000000000000000000000000008414600084121615610e0057610dff610a36565b5b8282058414831517610e1557610e14610a36565b5b509291505056fea26469706673582212203551079e37526f39c2cb8a78c53de5348a705aacf21152dfa07fe4f78ec6957564736f6c63430008130033",
  "linkReferences": {},
  "deployedLinkReferences": {}
}