{
  "_format": "hh-sol-artifact-1",
  "contractName": "FundMe",
  "sourceName": "contracts/FundMe.sol",
  "abi": [
    {
      "inputs": [],
      "stateMutability": "nonpayable",
      "type": "constructor"
    },
    {
      "inputs": [
        {
          "internalType": "address",
          "name": "",
          "type": "address"
        }
      ],
      "name": "addressToAmount",
      "outputs": [
        {
          "internalType": "uint256",
          "name": "",
          "type": "uint256"
        }
      ],
      "stateMutability": "view",
      "type": "function"
    },
    {
      "inputs": [],
      "name": "fund",
      "outputs": [],
      "stateMutability": "payable",
      "type": "function"
    },
    {
      "inputs": [
        {
          "internalType": "uint256",
          "name": "",
          "type": "uint256"
        }
      ],
      "name": "funders",
      "outputs": [
        {
          "internalType": "address",
          "name": "",
          "type": "address"
        }
      ],
      "stateMutability": "view",
      "type": "function"
    },
    {
      "inputs": [],
      "name": "owner",
      "outputs": [
        {
          "internalType": "address",
          "name": "",
          "type": "address"
        }
      ],
      "stateMutability": "view",
      "type": "function"
    },
    {
      "inputs": [],
      "name": "withdraw",
      "outputs": [],
      "stateMutability": "nonpayable",
      "type": "function"
    }
  ],
  "bytecode": "0x6080604052678ac7230489e8000060015534801561001c57600080fd5b50336000806101000a81548173ffffffffffffffffffffffffffffffffffffffff021916908373ffffffffffffffffffffffffffffffffffffffff160217905550610cf68061006c6000396000f3fe60806040526004361061004a5760003560e01c80633c7e7d281461004f5780633ccfd60b1461008c5780638da5cb5b146100a3578063b60d4288146100ce578063dc0d3dff146100d8575b600080fd5b34801561005b57600080fd5b506100766004803603810190610071919061074a565b610115565b6040516100839190610790565b60405180910390f35b34801561009857600080fd5b506100a161012d565b005b3480156100af57600080fd5b506100b8610405565b6040516100c591906107ba565b60405180910390f35b6100d6610429565b005b3480156100e457600080fd5b506100ff60048036038101906100fa9190610801565b61051e565b60405161010c91906107ba565b60405180910390f35b60036020528060005260406000206000915090505481565b60008054906101000a900473ffffffffffffffffffffffffffffffffffffffff1673ffffffffffffffffffffffffffffffffffffffff163373ffffffffffffffffffffffffffffffffffffffff16146101bb576040517f08c379a00000000000000000000000000000000000000000000000000000000081526004016101b29061088b565b60405180910390fd5b60008054906101000a900473ffffffffffffffffffffffffffffffffffffffff1673ffffffffffffffffffffffffffffffffffffffff163373ffffffffffffffffffffffffffffffffffffffff1614610249576040517f08c379a00000000000000000000000000000000000000000000000000000000081526004016102409061088b565b60405180910390fd5b60005b6002805490508110156102f55760006002828154811061026f5761026e6108ab565b5b9060005260206000200160009054906101000a900473ffffffffffffffffffffffffffffffffffffffff1690506000600360008373ffffffffffffffffffffffffffffffffffffffff1673ffffffffffffffffffffffffffffffffffffffff168152602001908152602001600020819055505080806102ed90610909565b91505061024c565b50600067ffffffffffffffff81111561031157610310610951565b5b60405190808252806020026020018201604052801561033f5781602001602082028036833780820191505090505b5060029080519060200190610355929190610640565b5060003373ffffffffffffffffffffffffffffffffffffffff164760405161037c906109b1565b60006040518083038185875af1925050503d80600081146103b9576040519150601f19603f3d011682016040523d82523d6000602084013e6103be565b606091505b5050905080610402576040517f08c379a00000000000000000000000000000000000000000000000000000000081526004016103f990610a12565b60405180910390fd5b50565b60008054906101000a900473ffffffffffffffffffffffffffffffffffffffff1681565b6001546104353461055d565b11610475576040517f08c379a000000000000000000000000000000000000000000000000000000000815260040161046c90610a7e565b60405180910390fd5b6002339080600181540180825580915050600190039060005260206000200160009091909190916101000a81548173ffffffffffffffffffffffffffffffffffffffff021916908373ffffffffffffffffffffffffffffffffffffffff16021790555034600360003373ffffffffffffffffffffffffffffffffffffffff1673ffffffffffffffffffffffffffffffffffffffff16815260200190815260200160002081905550565b6002818154811061052e57600080fd5b906000526020600020016000915054906101000a900473ffffffffffffffffffffffffffffffffffffffff1681565b600080610568610597565b90506000670de0b6b3a764000084836105819190610a9e565b61058b9190610b0f565b90508092505050919050565b60008073694aa1769357215de4fac081bf1f309adc325306905060008173ffffffffffffffffffffffffffffffffffffffff1663feaf968c6040518163ffffffff1660e01b815260040160a060405180830381865afa1580156105fe573d6000803e3d6000fd5b505050506040513d601f19601f820116820180604052508101906106229190610bcd565b5050509150506402540be400816106399190610c48565b9250505090565b8280548282559060005260206000209081019282156106b9579160200282015b828111156106b85782518260006101000a81548173ffffffffffffffffffffffffffffffffffffffff021916908373ffffffffffffffffffffffffffffffffffffffff16021790555091602001919060010190610660565b5b5090506106c691906106ca565b5090565b5b808211156106e35760008160009055506001016106cb565b5090565b600080fd5b600073ffffffffffffffffffffffffffffffffffffffff82169050919050565b6000610717826106ec565b9050919050565b6107278161070c565b811461073257600080fd5b50565b6000813590506107448161071e565b92915050565b6000602082840312156107605761075f6106e7565b5b600061076e84828501610735565b91505092915050565b6000819050919050565b61078a81610777565b82525050565b60006020820190506107a56000830184610781565b92915050565b6107b48161070c565b82525050565b60006020820190506107cf60008301846107ab565b92915050565b6107de81610777565b81146107e957600080fd5b50565b6000813590506107fb816107d5565b92915050565b600060208284031215610817576108166106e7565b5b6000610825848285016107ec565b91505092915050565b600082825260208201905092915050565b7f596f752063616e206e6f74207769746864726177000000000000000000000000600082015250565b600061087560148361082e565b91506108808261083f565b602082019050919050565b600060208201905081810360008301526108a481610868565b9050919050565b7f4e487b7100000000000000000000000000000000000000000000000000000000600052603260045260246000fd5b7f4e487b7100000000000000000000000000000000000000000000000000000000600052601160045260246000fd5b600061091482610777565b91507fffffffffffffffffffffffffffffffffffffffffffffffffffffffffffffffff8203610946576109456108da565b5b600182019050919050565b7f4e487b7100000000000000000000000000000000000000000000000000000000600052604160045260246000fd5b600081905092915050565b50565b600061099b600083610980565b91506109a68261098b565b600082019050919050565b60006109bc8261098e565b9150819050919050565b7f43616c6c206661696c6564000000000000000000000000000000000000000000600082015250565b60006109fc600b8361082e565b9150610a07826109c6565b602082019050919050565b60006020820190508181036000830152610a2b816109ef565b9050919050565b7f4469646e742073656e6420656e6f756768000000000000000000000000000000600082015250565b6000610a6860118361082e565b9150610a7382610a32565b602082019050919050565b60006020820190508181036000830152610a9781610a5b565b9050919050565b6000610aa982610777565b9150610ab483610777565b9250828202610ac281610777565b91508282048414831517610ad957610ad86108da565b5b5092915050565b7f4e487b7100000000000000000000000000000000000000000000000000000000600052601260045260246000fd5b6000610b1a82610777565b9150610b2583610777565b925082610b3557610b34610ae0565b5b828204905092915050565b600069ffffffffffffffffffff82169050919050565b610b5f81610b40565b8114610b6a57600080fd5b50565b600081519050610b7c81610b56565b92915050565b6000819050919050565b610b9581610b82565b8114610ba057600080fd5b50565b600081519050610bb281610b8c565b92915050565b600081519050610bc7816107d5565b92915050565b600080600080600060a08688031215610be957610be86106e7565b5b6000610bf788828901610b6d565b9550506020610c0888828901610ba3565b9450506040610c1988828901610bb8565b9350506060610c2a88828901610bb8565b9250506080610c3b88828901610b6d565b9150509295509295909350565b6000610c5382610b82565b9150610c5e83610b82565b9250828202610c6c81610b82565b91507f80000000000000000000000000000000000000000000000000000000000000008414600084121615610ca457610ca36108da565b5b8282058414831517610cb957610cb86108da565b5b509291505056fea2646970667358221220662fe795b1b278e98a72dcbd03b209fde353a58f8732d643d9b128d11ce4701564736f6c63430008130033",
  "linkReferences": {},
  "deployedLinkReferences": {}
}